{
  "_format": "hh-sol-artifact-1",
  "contractName": "Domains",
  "sourceName": "contracts/Domains.sol",
  "abi": [
    {
      "inputs": [
        {
          "internalType": "string",
          "name": "_tld",
          "type": "string"
        }
      ],
      "stateMutability": "payable",
      "type": "constructor"
    },
    {
      "inputs": [
        {
          "internalType": "string",
          "name": "name",
          "type": "string"
        }
      ],
      "name": "AlreadyRegistered",
      "type": "error"
    },
    {
      "inputs": [],
      "name": "ContractWithdrawalFailed",
      "type": "error"
    },
    {
      "inputs": [],
      "name": "InsufficientAmountForDomain",
      "type": "error"
    },
    {
      "inputs": [
        {
          "internalType": "string",
          "name": "name",
          "type": "string"
        }
      ],
      "name": "InvalidName",
      "type": "error"
    },
    {
      "inputs": [],
      "name": "Unauthorized",
      "type": "error"
    },
    {
      "anonymous": false,
      "inputs": [
        {
          "indexed": true,
          "internalType": "address",
          "name": "owner",
          "type": "address"
        },
        {
          "indexed": true,
          "internalType": "address",
          "name": "approved",
          "type": "address"
        },
        {
          "indexed": true,
          "internalType": "uint256",
          "name": "tokenId",
          "type": "uint256"
        }
      ],
      "name": "Approval",
      "type": "event"
    },
    {
      "anonymous": false,
      "inputs": [
        {
          "indexed": true,
          "internalType": "address",
          "name": "owner",
          "type": "address"
        },
        {
          "indexed": true,
          "internalType": "address",
          "name": "operator",
          "type": "address"
        },
        {
          "indexed": false,
          "internalType": "bool",
          "name": "approved",
          "type": "bool"
        }
      ],
      "name": "ApprovalForAll",
      "type": "event"
    },
    {
      "anonymous": false,
      "inputs": [
        {
          "indexed": true,
          "internalType": "address",
          "name": "from",
          "type": "address"
        },
        {
          "indexed": true,
          "internalType": "address",
          "name": "to",
          "type": "address"
        },
        {
          "indexed": true,
          "internalType": "uint256",
          "name": "tokenId",
          "type": "uint256"
        }
      ],
      "name": "Transfer",
      "type": "event"
    },
    {
      "inputs": [
        {
          "internalType": "address",
          "name": "to",
          "type": "address"
        },
        {
          "internalType": "uint256",
          "name": "tokenId",
          "type": "uint256"
        }
      ],
      "name": "approve",
      "outputs": [],
      "stateMutability": "nonpayable",
      "type": "function"
    },
    {
      "inputs": [
        {
          "internalType": "address",
          "name": "owner",
          "type": "address"
        }
      ],
      "name": "balanceOf",
      "outputs": [
        {
          "internalType": "uint256",
          "name": "",
          "type": "uint256"
        }
      ],
      "stateMutability": "view",
      "type": "function"
    },
    {
      "inputs": [
        {
          "internalType": "string",
          "name": "",
          "type": "string"
        }
      ],
      "name": "domains",
      "outputs": [
        {
          "internalType": "address",
          "name": "",
          "type": "address"
        }
      ],
      "stateMutability": "view",
      "type": "function"
    },
    {
      "inputs": [
        {
          "internalType": "string",
          "name": "name",
          "type": "string"
        }
      ],
      "name": "getAddress",
      "outputs": [
        {
          "internalType": "address",
          "name": "",
          "type": "address"
        }
      ],
      "stateMutability": "view",
      "type": "function"
    },
    {
      "inputs": [],
      "name": "getAllNames",
      "outputs": [
        {
          "internalType": "string[]",
          "name": "",
          "type": "string[]"
        }
      ],
      "stateMutability": "view",
      "type": "function"
    },
    {
      "inputs": [
        {
          "internalType": "uint256",
          "name": "tokenId",
          "type": "uint256"
        }
      ],
      "name": "getApproved",
      "outputs": [
        {
          "internalType": "address",
          "name": "",
          "type": "address"
        }
      ],
      "stateMutability": "view",
      "type": "function"
    },
    {
      "inputs": [
        {
          "internalType": "string",
          "name": "name",
          "type": "string"
        }
      ],
      "name": "getRecord",
      "outputs": [
        {
          "internalType": "string",
          "name": "",
          "type": "string"
        }
      ],
      "stateMutability": "view",
      "type": "function"
    },
    {
      "inputs": [
        {
          "internalType": "address",
          "name": "owner",
          "type": "address"
        },
        {
          "internalType": "address",
          "name": "operator",
          "type": "address"
        }
      ],
      "name": "isApprovedForAll",
      "outputs": [
        {
          "internalType": "bool",
          "name": "",
          "type": "bool"
        }
      ],
      "stateMutability": "view",
      "type": "function"
    },
    {
      "inputs": [],
      "name": "isOwner",
      "outputs": [
        {
          "internalType": "bool",
          "name": "",
          "type": "bool"
        }
      ],
      "stateMutability": "view",
      "type": "function"
    },
    {
      "inputs": [],
      "name": "name",
      "outputs": [
        {
          "internalType": "string",
          "name": "",
          "type": "string"
        }
      ],
      "stateMutability": "view",
      "type": "function"
    },
    {
      "inputs": [
        {
          "internalType": "uint256",
          "name": "",
          "type": "uint256"
        }
      ],
      "name": "names",
      "outputs": [
        {
          "internalType": "string",
          "name": "",
          "type": "string"
        }
      ],
      "stateMutability": "view",
      "type": "function"
    },
    {
      "inputs": [],
      "name": "owner",
      "outputs": [
        {
          "internalType": "address payable",
          "name": "",
          "type": "address"
        }
      ],
      "stateMutability": "view",
      "type": "function"
    },
    {
      "inputs": [
        {
          "internalType": "uint256",
          "name": "tokenId",
          "type": "uint256"
        }
      ],
      "name": "ownerOf",
      "outputs": [
        {
          "internalType": "address",
          "name": "",
          "type": "address"
        }
      ],
      "stateMutability": "view",
      "type": "function"
    },
    {
      "inputs": [
        {
          "internalType": "string",
          "name": "name",
          "type": "string"
        }
      ],
      "name": "price",
      "outputs": [
        {
          "internalType": "uint256",
          "name": "",
          "type": "uint256"
        }
      ],
      "stateMutability": "pure",
      "type": "function"
    },
    {
      "inputs": [
        {
          "internalType": "string",
          "name": "",
          "type": "string"
        }
      ],
      "name": "records",
      "outputs": [
        {
          "internalType": "string",
          "name": "",
          "type": "string"
        }
      ],
      "stateMutability": "view",
      "type": "function"
    },
    {
      "inputs": [
        {
          "internalType": "string",
          "name": "name",
          "type": "string"
        }
      ],
      "name": "register",
      "outputs": [],
      "stateMutability": "payable",
      "type": "function"
    },
    {
      "inputs": [
        {
          "internalType": "address",
          "name": "from",
          "type": "address"
        },
        {
          "internalType": "address",
          "name": "to",
          "type": "address"
        },
        {
          "internalType": "uint256",
          "name": "tokenId",
          "type": "uint256"
        }
      ],
      "name": "safeTransferFrom",
      "outputs": [],
      "stateMutability": "nonpayable",
      "type": "function"
    },
    {
      "inputs": [
        {
          "internalType": "address",
          "name": "from",
          "type": "address"
        },
        {
          "internalType": "address",
          "name": "to",
          "type": "address"
        },
        {
          "internalType": "uint256",
          "name": "tokenId",
          "type": "uint256"
        },
        {
          "internalType": "bytes",
          "name": "data",
          "type": "bytes"
        }
      ],
      "name": "safeTransferFrom",
      "outputs": [],
      "stateMutability": "nonpayable",
      "type": "function"
    },
    {
      "inputs": [
        {
          "internalType": "address",
          "name": "operator",
          "type": "address"
        },
        {
          "internalType": "bool",
          "name": "approved",
          "type": "bool"
        }
      ],
      "name": "setApprovalForAll",
      "outputs": [],
      "stateMutability": "nonpayable",
      "type": "function"
    },
    {
      "inputs": [
        {
          "internalType": "string",
          "name": "name",
          "type": "string"
        },
        {
          "internalType": "string",
          "name": "record",
          "type": "string"
        }
      ],
      "name": "setRecord",
      "outputs": [],
      "stateMutability": "nonpayable",
      "type": "function"
    },
    {
      "inputs": [
        {
          "internalType": "bytes4",
          "name": "interfaceId",
          "type": "bytes4"
        }
      ],
      "name": "supportsInterface",
      "outputs": [
        {
          "internalType": "bool",
          "name": "",
          "type": "bool"
        }
      ],
      "stateMutability": "view",
      "type": "function"
    },
    {
      "inputs": [],
      "name": "symbol",
      "outputs": [
        {
          "internalType": "string",
          "name": "",
          "type": "string"
        }
      ],
      "stateMutability": "view",
      "type": "function"
    },
    {
      "inputs": [],
      "name": "tld",
      "outputs": [
        {
          "internalType": "string",
          "name": "",
          "type": "string"
        }
      ],
      "stateMutability": "view",
      "type": "function"
    },
    {
      "inputs": [
        {
          "internalType": "uint256",
          "name": "tokenId",
          "type": "uint256"
        }
      ],
      "name": "tokenURI",
      "outputs": [
        {
          "internalType": "string",
          "name": "",
          "type": "string"
        }
      ],
      "stateMutability": "view",
      "type": "function"
    },
    {
      "inputs": [
        {
          "internalType": "address",
          "name": "from",
          "type": "address"
        },
        {
          "internalType": "address",
          "name": "to",
          "type": "address"
        },
        {
          "internalType": "uint256",
          "name": "tokenId",
          "type": "uint256"
        }
      ],
      "name": "transferFrom",
      "outputs": [],
      "stateMutability": "nonpayable",
      "type": "function"
    },
    {
      "inputs": [],
      "name": "withdraw",
      "outputs": [],
      "stateMutability": "nonpayable",
      "type": "function"
    }
  ],
  "bytecode": "0x6080604052604051806108a0016040528061086b81526020016200558f61086b9139600990816200003191906200051f565b506040518060400160405280600d81526020017f3c2f746578743e3c2f7376673e00000000000000000000000000000000000000815250600a90816200007891906200051f565b5060405162005dfa38038062005dfa83398181016040528101906200009e91906200076a565b6040518060400160405280601181526020017f416c6661204e616d6520536572766963650000000000000000000000000000008152506040518060400160405280600381526020017f414e53000000000000000000000000000000000000000000000000000000000081525081600090816200011b91906200051f565b5080600190816200012d91906200051f565b50505033600e60006101000a81548173ffffffffffffffffffffffffffffffffffffffff021916908373ffffffffffffffffffffffffffffffffffffffff16021790555080600890816200018291906200051f565b50620001cf6040518060400160405280601881526020017f2573206e616d652073657276696365206465706c6f796564000000000000000081525082620001d660201b62001a691760201c565b5062000848565b620002788282604051602401620001ef9291906200080d565b6040516020818303038152906040527f4b5c4277000000000000000000000000000000000000000000000000000000007bffffffffffffffffffffffffffffffffffffffffffffffffffffffff19166020820180517bffffffffffffffffffffffffffffffffffffffffffffffffffffffff83818316178352505050506200027c60201b60201c565b5050565b60008151905060006a636f6e736f6c652e6c6f679050602083016000808483855afa5050505050565b600081519050919050565b7f4e487b7100000000000000000000000000000000000000000000000000000000600052604160045260246000fd5b7f4e487b7100000000000000000000000000000000000000000000000000000000600052602260045260246000fd5b600060028204905060018216806200032757607f821691505b6020821081036200033d576200033c620002df565b5b50919050565b60008190508160005260206000209050919050565b60006020601f8301049050919050565b600082821b905092915050565b600060088302620003a77fffffffffffffffffffffffffffffffffffffffffffffffffffffffffffffffff8262000368565b620003b3868362000368565b95508019841693508086168417925050509392505050565b6000819050919050565b6000819050919050565b600062000400620003fa620003f484620003cb565b620003d5565b620003cb565b9050919050565b6000819050919050565b6200041c83620003df565b620004346200042b8262000407565b84845462000375565b825550505050565b600090565b6200044b6200043c565b6200045881848462000411565b505050565b5b8181101562000480576200047460008262000441565b6001810190506200045e565b5050565b601f821115620004cf57620004998162000343565b620004a48462000358565b81016020851015620004b4578190505b620004cc620004c38562000358565b8301826200045d565b50505b505050565b600082821c905092915050565b6000620004f460001984600802620004d4565b1980831691505092915050565b60006200050f8383620004e1565b9150826002028217905092915050565b6200052a82620002a5565b67ffffffffffffffff811115620005465762000545620002b0565b5b6200055282546200030e565b6200055f82828562000484565b600060209050601f83116001811462000597576000841562000582578287015190505b6200058e858262000501565b865550620005fe565b601f198416620005a78662000343565b60005b82811015620005d157848901518255600182019150602085019450602081019050620005aa565b86831015620005f15784890151620005ed601f891682620004e1565b8355505b6001600288020188555050505b505050505050565b6000604051905090565b600080fd5b600080fd5b600080fd5b600080fd5b6000601f19601f8301169050919050565b620006408262000624565b810181811067ffffffffffffffff82111715620006625762000661620002b0565b5b80604052505050565b60006200067762000606565b905062000685828262000635565b919050565b600067ffffffffffffffff821115620006a857620006a7620002b0565b5b620006b38262000624565b9050602081019050919050565b60005b83811015620006e0578082015181840152602081019050620006c3565b60008484015250505050565b600062000703620006fd846200068a565b6200066b565b9050828152602081018484840111156200072257620007216200061f565b5b6200072f848285620006c0565b509392505050565b600082601f8301126200074f576200074e6200061a565b5b815162000761848260208601620006ec565b91505092915050565b60006020828403121562000783576200078262000610565b5b600082015167ffffffffffffffff811115620007a457620007a362000615565b5b620007b28482850162000737565b91505092915050565b600082825260208201905092915050565b6000620007d982620002a5565b620007e58185620007bb565b9350620007f7818560208601620006c0565b620008028162000624565b840191505092915050565b60006040820190508181036000830152620008298185620007cc565b905081810360208301526200083f8184620007cc565b90509392505050565b614d3780620008586000396000f3fe6080604052600436106101815760003560e01c806370a08231116100d1578063bf40fac11161008a578063e985e9c511610064578063e985e9c5146105cc578063f2c298be14610609578063fb825e5f14610625578063fe2c61981461065057610181565b8063bf40fac114610529578063c1880a9814610566578063c87b56dd1461058f57610181565b806370a08231146104195780638da5cb5b146104565780638f32d59b1461048157806395d89b41146104ac578063a22cb465146104d7578063b88d4fde1461050057610181565b8063264492351161013e57806342842e0e1161011857806342842e0e146103395780634622ab0314610362578063541e771d1461039f5780636352211e146103dc57610181565b806326449235146102ba5780632d551432146102f75780633ccfd60b1461032257610181565b806301ffc9a71461018657806306fdde03146101c3578063081812fc146101ee578063095ea7b31461022b57806311dd88451461025457806323b872dd14610291575b600080fd5b34801561019257600080fd5b506101ad60048036038101906101a8919061310f565b61068d565b6040516101ba9190613157565b60405180910390f35b3480156101cf57600080fd5b506101d861076f565b6040516101e59190613202565b60405180910390f35b3480156101fa57600080fd5b506102156004803603810190610210919061325a565b610801565b60405161022291906132c8565b60405180910390f35b34801561023757600080fd5b50610252600480360381019061024d919061330f565b610847565b005b34801561026057600080fd5b5061027b600480360381019061027691906133b4565b61095e565b6040516102889190613202565b60405180910390f35b34801561029d57600080fd5b506102b860048036038101906102b39190613401565b610a11565b005b3480156102c657600080fd5b506102e160048036038101906102dc9190613584565b610a71565b6040516102ee91906132c8565b60405180910390f35b34801561030357600080fd5b5061030c610aba565b6040516103199190613202565b60405180910390f35b34801561032e57600080fd5b50610337610b48565b005b34801561034557600080fd5b50610360600480360381019061035b9190613401565b610c32565b005b34801561036e57600080fd5b506103896004803603810190610384919061325a565b610c52565b6040516103969190613202565b60405180910390f35b3480156103ab57600080fd5b506103c660048036038101906103c19190613584565b610cf2565b6040516103d39190613202565b60405180910390f35b3480156103e857600080fd5b5061040360048036038101906103fe919061325a565b610da8565b60405161041091906132c8565b60405180910390f35b34801561042557600080fd5b50610440600480360381019061043b91906135cd565b610e2e565b60405161044d9190613609565b60405180910390f35b34801561046257600080fd5b5061046b610ee5565b6040516104789190613645565b60405180910390f35b34801561048d57600080fd5b50610496610f0b565b6040516104a39190613157565b60405180910390f35b3480156104b857600080fd5b506104c1610f63565b6040516104ce9190613202565b60405180910390f35b3480156104e357600080fd5b506104fe60048036038101906104f9919061368c565b610ff5565b005b34801561050c57600080fd5b506105276004803603810190610522919061376d565b61100b565b005b34801561053557600080fd5b50610550600480360381019061054b91906133b4565b61106d565b60405161055d91906132c8565b60405180910390f35b34801561057257600080fd5b5061058d600480360381019061058891906137f0565b6110b8565b005b34801561059b57600080fd5b506105b660048036038101906105b1919061325a565b611193565b6040516105c39190613202565b60405180910390f35b3480156105d857600080fd5b506105f360048036038101906105ee9190613871565b6112a5565b6040516106009190613157565b60405180910390f35b610623600480360381019061061e91906133b4565b611339565b005b34801561063157600080fd5b5061063a6117ad565b60405161064791906139bd565b60405180910390f35b34801561065c57600080fd5b50610677600480360381019061067291906133b4565b61198b565b6040516106849190613609565b60405180910390f35b60007f80ac58cd000000000000000000000000000000000000000000000000000000007bffffffffffffffffffffffffffffffffffffffffffffffffffffffff1916827bffffffffffffffffffffffffffffffffffffffffffffffffffffffff1916148061075857507f5b5e139f000000000000000000000000000000000000000000000000000000007bffffffffffffffffffffffffffffffffffffffffffffffffffffffff1916827bffffffffffffffffffffffffffffffffffffffffffffffffffffffff1916145b80610768575061076782611b05565b5b9050919050565b60606000805461077e90613a0e565b80601f01602080910402602001604051908101604052809291908181526020018280546107aa90613a0e565b80156107f75780601f106107cc576101008083540402835291602001916107f7565b820191906000526020600020905b8154815290600101906020018083116107da57829003601f168201915b5050505050905090565b600061080c82611b6f565b6004600083815260200190815260200160002060009054906101000a900473ffffffffffffffffffffffffffffffffffffffff169050919050565b600061085282610da8565b90508073ffffffffffffffffffffffffffffffffffffffff168373ffffffffffffffffffffffffffffffffffffffff16036108c2576040517f08c379a00000000000000000000000000000000000000000000000000000000081526004016108b990613ab1565b60405180910390fd5b8073ffffffffffffffffffffffffffffffffffffffff166108e1611bba565b73ffffffffffffffffffffffffffffffffffffffff161480610910575061090f8161090a611bba565b6112a5565b5b61094f576040517f08c379a000000000000000000000000000000000000000000000000000000000815260040161094690613b43565b60405180910390fd5b6109598383611bc2565b505050565b6060600c8383604051610972929190613b93565b9081526020016040518091039020805461098b90613a0e565b80601f01602080910402602001604051908101604052809291908181526020018280546109b790613a0e565b8015610a045780601f106109d957610100808354040283529160200191610a04565b820191906000526020600020905b8154815290600101906020018083116109e757829003601f168201915b5050505050905092915050565b610a22610a1c611bba565b82611c7b565b610a61576040517f08c379a0000000000000000000000000000000000000000000000000000000008152600401610a5890613c1e565b60405180910390fd5b610a6c838383611d10565b505050565b600b818051602081018201805184825260208301602085012081835280955050505050506000915054906101000a900473ffffffffffffffffffffffffffffffffffffffff1681565b60088054610ac790613a0e565b80601f0160208091040260200160405190810160405280929190818152602001828054610af390613a0e565b8015610b405780601f10610b1557610100808354040283529160200191610b40565b820191906000526020600020905b815481529060010190602001808311610b2357829003601f168201915b505050505081565b610b50610f0b565b610b86576040517f82b4290000000000000000000000000000000000000000000000000000000000815260040160405180910390fd5b600047905060003373ffffffffffffffffffffffffffffffffffffffff1682604051610bb190613c6f565b60006040518083038185875af1925050503d8060008114610bee576040519150601f19603f3d011682016040523d82523d6000602084013e610bf3565b606091505b5050905080610c2e576040517fe9fa579900000000000000000000000000000000000000000000000000000000815260040160405180910390fd5b5050565b610c4d8383836040518060200160405280600081525061100b565b505050565b600d6020528060005260406000206000915090508054610c7190613a0e565b80601f0160208091040260200160405190810160405280929190818152602001828054610c9d90613a0e565b8015610cea5780601f10610cbf57610100808354040283529160200191610cea565b820191906000526020600020905b815481529060010190602001808311610ccd57829003601f168201915b505050505081565b600c818051602081018201805184825260208301602085012081835280955050505050506000915090508054610d2790613a0e565b80601f0160208091040260200160405190810160405280929190818152602001828054610d5390613a0e565b8015610da05780601f10610d7557610100808354040283529160200191610da0565b820191906000526020600020905b815481529060010190602001808311610d8357829003601f168201915b505050505081565b600080610db483612009565b9050600073ffffffffffffffffffffffffffffffffffffffff168173ffffffffffffffffffffffffffffffffffffffff1603610e25576040517f08c379a0000000000000000000000000000000000000000000000000000000008152600401610e1c90613cd0565b60405180910390fd5b80915050919050565b60008073ffffffffffffffffffffffffffffffffffffffff168273ffffffffffffffffffffffffffffffffffffffff1603610e9e576040517f08c379a0000000000000000000000000000000000000000000000000000000008152600401610e9590613d62565b60405180910390fd5b600360008373ffffffffffffffffffffffffffffffffffffffff1673ffffffffffffffffffffffffffffffffffffffff168152602001908152602001600020549050919050565b600e60009054906101000a900473ffffffffffffffffffffffffffffffffffffffff1681565b6000600e60009054906101000a900473ffffffffffffffffffffffffffffffffffffffff1673ffffffffffffffffffffffffffffffffffffffff163373ffffffffffffffffffffffffffffffffffffffff1614905090565b606060018054610f7290613a0e565b80601f0160208091040260200160405190810160405280929190818152602001828054610f9e90613a0e565b8015610feb5780601f10610fc057610100808354040283529160200191610feb565b820191906000526020600020905b815481529060010190602001808311610fce57829003601f168201915b5050505050905090565b611007611000611bba565b8383612046565b5050565b61101c611016611bba565b83611c7b565b61105b576040517f08c379a000000000000000000000000000000000000000000000000000000000815260040161105290613c1e565b60405180910390fd5b611067848484846121b2565b50505050565b6000600b8383604051611081929190613b93565b908152602001604051809103902060009054906101000a900473ffffffffffffffffffffffffffffffffffffffff16905092915050565b3373ffffffffffffffffffffffffffffffffffffffff16600b85856040516110e1929190613b93565b908152602001604051809103902060009054906101000a900473ffffffffffffffffffffffffffffffffffffffff1673ffffffffffffffffffffffffffffffffffffffff161461115d576040517f82b4290000000000000000000000000000000000000000000000000000000000815260040160405180910390fd5b8181600c8686604051611171929190613b93565b9081526020016040518091039020918261118c929190613f39565b5050505050565b606061119e82611b6f565b60006006600084815260200190815260200160002080546111be90613a0e565b80601f01602080910402602001604051908101604052809291908181526020018280546111ea90613a0e565b80156112375780601f1061120c57610100808354040283529160200191611237565b820191906000526020600020905b81548152906001019060200180831161121a57829003601f168201915b50505050509050600061124861220e565b9050600081510361125d5781925050506112a0565b60008251111561129257808260405160200161127a92919061403a565b604051602081830303815290604052925050506112a0565b61129b84612225565b925050505b919050565b6000600560008473ffffffffffffffffffffffffffffffffffffffff1673ffffffffffffffffffffffffffffffffffffffff16815260200190815260200160002060008373ffffffffffffffffffffffffffffffffffffffff1673ffffffffffffffffffffffffffffffffffffffff16815260200190815260200160002060009054906101000a900460ff16905092915050565b600073ffffffffffffffffffffffffffffffffffffffff16600b8383604051611363929190613b93565b908152602001604051809103902060009054906101000a900473ffffffffffffffffffffffffffffffffffffffff1673ffffffffffffffffffffffffffffffffffffffff16146113ec5781816040517f0a7a3d7c0000000000000000000000000000000000000000000000000000000081526004016113e392919061408b565b60405180910390fd5b60006113f8838361198b565b905080341015611434576040517f28f8ecdc00000000000000000000000000000000000000000000000000000000815260040160405180910390fd5b60008383600860405160200161144c9392919061417e565b60405160208183030381529060405290506000600982600a604051602001611476939291906141af565b60405160208183030381529060405290506000611493600761228d565b905060006114e487878080601f016020809104026020016040519081016040528093929190818152602001838380828437600081840152601f19601f8201169050808301925050505050505061229b565b905060006114f182612450565b90506115e5604051806060016040528060318152602001614c586031913989898080601f016020809104026020016040519081016040528093929190818152602001838380828437600081840152601f19601f820116905080830192505050505050506008805461156190613a0e565b80601f016020809104026020016040519081016040528092919081815260200182805461158d90613a0e565b80156115da5780601f106115af576101008083540402835291602001916115da565b820191906000526020600020905b8154815290600101906020018083116115bd57829003601f168201915b50505050508661251e565b600061161b866115f4876125c0565b846040516020016116079392919061435c565b6040516020818303038152906040526125c0565b90506000816040516020016116309190614405565b6040516020818303038152906040529050611662604051806060016040528060398152602001614c1f60399139612723565b6116a16040518060400160405280600e81526020017f46696e616c20746f6b656e55524900000000000000000000000000000000000081525082611a69565b6116c2604051806060016040528060398152602001614c8960399139612723565b6116cc33866127bc565b6116d685826127da565b33600b8b8b6040516116e9929190613b93565b908152602001604051809103902060006101000a81548173ffffffffffffffffffffffffffffffffffffffff021916908373ffffffffffffffffffffffffffffffffffffffff1602179055506117746040518060400160405280601b81526020017f2573206861732072656769737465726564206120646f6d61696e21000000000081525033612847565b8989600d60008881526020019081526020016000209182611796929190613f39565b506117a160076128e3565b50505050505050505050565b60606117ed6040518060400160405280601f81526020017f47657474696e6720616c6c206e616d65732066726f6d20636f6e747261637400815250612723565b60006117f9600761228d565b67ffffffffffffffff81111561181257611811613459565b5b60405190808252806020026020018201604052801561184557816020015b60608152602001906001900390816118305790505b50905060005b611855600761228d565b81101561198357600d6000828152602001908152602001600020805461187a90613a0e565b80601f01602080910402602001604051908101604052809291908181526020018280546118a690613a0e565b80156118f35780601f106118c8576101008083540402835291602001916118f3565b820191906000526020600020905b8154815290600101906020018083116118d657829003601f168201915b505050505082828151811061190b5761190a614427565b5b60200260200101819052506119706040518060400160405280601781526020017f4e616d6520666f7220746f6b656e2025642069732025730000000000000000008152508284848151811061196357611962614427565b5b60200260200101516128f9565b808061197b90614485565b91505061184b565b508091505090565b6000806119db84848080601f016020809104026020016040519081016040528093929190818152602001838380828437600081840152601f19601f8201169050808301925050505050505061229b565b905060008111611a245783836040517f7f19f48d000000000000000000000000000000000000000000000000000000008152600401611a1b92919061408b565b60405180910390fd5b60038111611a3d576706f05b59d3b20000915050611a63565b60048103611a5657670429d069189e0000915050611a63565b67016345785d8a00009150505b92915050565b611b018282604051602401611a7f9291906144cd565b6040516020818303038152906040527f4b5c4277000000000000000000000000000000000000000000000000000000007bffffffffffffffffffffffffffffffffffffffffffffffffffffffff19166020820180517bffffffffffffffffffffffffffffffffffffffffffffffffffffffff8381831617835250505050612998565b5050565b60007f01ffc9a7000000000000000000000000000000000000000000000000000000007bffffffffffffffffffffffffffffffffffffffffffffffffffffffff1916827bffffffffffffffffffffffffffffffffffffffffffffffffffffffff1916149050919050565b611b78816129c1565b611bb7576040517f08c379a0000000000000000000000000000000000000000000000000000000008152600401611bae90613cd0565b60405180910390fd5b50565b600033905090565b816004600083815260200190815260200160002060006101000a81548173ffffffffffffffffffffffffffffffffffffffff021916908373ffffffffffffffffffffffffffffffffffffffff160217905550808273ffffffffffffffffffffffffffffffffffffffff16611c3583610da8565b73ffffffffffffffffffffffffffffffffffffffff167f8c5be1e5ebec7d5bd14f71427d1e84f3dd0314c0f7b2291e5b200ac8c7c3b92560405160405180910390a45050565b600080611c8783610da8565b90508073ffffffffffffffffffffffffffffffffffffffff168473ffffffffffffffffffffffffffffffffffffffff161480611cc95750611cc881856112a5565b5b80611d0757508373ffffffffffffffffffffffffffffffffffffffff16611cef84610801565b73ffffffffffffffffffffffffffffffffffffffff16145b91505092915050565b8273ffffffffffffffffffffffffffffffffffffffff16611d3082610da8565b73ffffffffffffffffffffffffffffffffffffffff1614611d86576040517f08c379a0000000000000000000000000000000000000000000000000000000008152600401611d7d90614576565b60405180910390fd5b600073ffffffffffffffffffffffffffffffffffffffff168273ffffffffffffffffffffffffffffffffffffffff1603611df5576040517f08c379a0000000000000000000000000000000000000000000000000000000008152600401611dec90614608565b60405180910390fd5b611e028383836001612a02565b8273ffffffffffffffffffffffffffffffffffffffff16611e2282610da8565b73ffffffffffffffffffffffffffffffffffffffff1614611e78576040517f08c379a0000000000000000000000000000000000000000000000000000000008152600401611e6f90614576565b60405180910390fd5b6004600082815260200190815260200160002060006101000a81549073ffffffffffffffffffffffffffffffffffffffff02191690556001600360008573ffffffffffffffffffffffffffffffffffffffff1673ffffffffffffffffffffffffffffffffffffffff168152602001908152602001600020600082825403925050819055506001600360008473ffffffffffffffffffffffffffffffffffffffff1673ffffffffffffffffffffffffffffffffffffffff16815260200190815260200160002060008282540192505081905550816002600083815260200190815260200160002060006101000a81548173ffffffffffffffffffffffffffffffffffffffff021916908373ffffffffffffffffffffffffffffffffffffffff160217905550808273ffffffffffffffffffffffffffffffffffffffff168473ffffffffffffffffffffffffffffffffffffffff167fddf252ad1be2c89b69c2b068fc378daa952ba7f163c4a11628f55a4df523b3ef60405160405180910390a46120048383836001612b28565b505050565b60006002600083815260200190815260200160002060009054906101000a900473ffffffffffffffffffffffffffffffffffffffff169050919050565b8173ffffffffffffffffffffffffffffffffffffffff168373ffffffffffffffffffffffffffffffffffffffff16036120b4576040517f08c379a00000000000000000000000000000000000000000000000000000000081526004016120ab90614674565b60405180910390fd5b80600560008573ffffffffffffffffffffffffffffffffffffffff1673ffffffffffffffffffffffffffffffffffffffff16815260200190815260200160002060008473ffffffffffffffffffffffffffffffffffffffff1673ffffffffffffffffffffffffffffffffffffffff16815260200190815260200160002060006101000a81548160ff0219169083151502179055508173ffffffffffffffffffffffffffffffffffffffff168373ffffffffffffffffffffffffffffffffffffffff167f17307eab39ab6107e8899845ad3d59bd9653f200f220920489ca2b5937696c31836040516121a59190613157565b60405180910390a3505050565b6121bd848484611d10565b6121c984848484612b2e565b612208576040517f08c379a00000000000000000000000000000000000000000000000000000000081526004016121ff90614706565b60405180910390fd5b50505050565b606060405180602001604052806000815250905090565b606061223082611b6f565b600061223a61220e565b9050600081511161225a5760405180602001604052806000815250612285565b8061226484612450565b60405160200161227592919061403a565b6040516020818303038152906040525b915050919050565b600081600001549050919050565b60008060008084519050600092505b808210156124455760008583815181106122c7576122c6614427565b5b602001015160f81c60f81b9050608060f81b817effffffffffffffffffffffffffffffffffffffffffffffffffffffffffffff191610156123165760018361230f9190614726565b9250612431565b60e060f81b817effffffffffffffffffffffffffffffffffffffffffffffffffffffffffffff19161015612358576002836123519190614726565b9250612430565b60f060f81b817effffffffffffffffffffffffffffffffffffffffffffffffffffffffffffff1916101561239a576003836123939190614726565b925061242f565b60f8801b817effffffffffffffffffffffffffffffffffffffffffffffffffffffffffffff191610156123db576004836123d49190614726565b925061242e565b60fc60f81b817effffffffffffffffffffffffffffffffffffffffffffffffffffffffffffff1916101561241d576005836124169190614726565b925061242d565b60068361242a9190614726565b92505b5b5b5b5b50828061243d90614485565b9350506122aa565b829350505050919050565b60606000600161245f84612cb5565b01905060008167ffffffffffffffff81111561247e5761247d613459565b5b6040519080825280601f01601f1916602001820160405280156124b05781602001600182028036833780820191505090505b509050600082602001820190505b600115612513578080600190039150507f3031323334353637383961626364656600000000000000000000000000000000600a86061a8153600a85816125075761250661475a565b5b049450600085036124be575b819350505050919050565b6125ba848484846040516024016125389493929190614789565b6040516020818303038152906040527f8eafb02b000000000000000000000000000000000000000000000000000000007bffffffffffffffffffffffffffffffffffffffffffffffffffffffff19166020820180517bffffffffffffffffffffffffffffffffffffffffffffffffffffffff8381831617835250505050612998565b50505050565b606060008251036125e25760405180602001604052806000815250905061271e565b6000604051806060016040528060408152602001614cc260409139905060006003600285516126119190614726565b61261b91906147e3565b60046126279190614814565b67ffffffffffffffff8111156126405761263f613459565b5b6040519080825280601f01601f1916602001820160405280156126725781602001600182028036833780820191505090505b509050600182016020820185865187015b808210156126de576003820191508151603f8160121c168501518453600184019350603f81600c1c168501518453600184019350603f8160061c168501518453600184019350603f8116850151845360018401935050612683565b50506003865106600181146126fa576002811461270d57612715565b603d6001830353603d6002830353612715565b603d60018303535b50505080925050505b919050565b6127b9816040516024016127379190613202565b6040516020818303038152906040527f41304fac000000000000000000000000000000000000000000000000000000007bffffffffffffffffffffffffffffffffffffffffffffffffffffffff19166020820180517bffffffffffffffffffffffffffffffffffffffffffffffffffffffff8381831617835250505050612998565b50565b6127d6828260405180602001604052806000815250612e08565b5050565b6127e3826129c1565b612822576040517f08c379a0000000000000000000000000000000000000000000000000000000008152600401612819906148c8565b60405180910390fd5b8060066000848152602001908152602001600020908161284291906148e8565b505050565b6128df828260405160240161285d9291906149ba565b6040516020818303038152906040527f319af333000000000000000000000000000000000000000000000000000000007bffffffffffffffffffffffffffffffffffffffffffffffffffffffff19166020820180517bffffffffffffffffffffffffffffffffffffffffffffffffffffffff8381831617835250505050612998565b5050565b6001816000016000828254019250508190555050565b612993838383604051602401612911939291906149ea565b6040516020818303038152906040527f5970e089000000000000000000000000000000000000000000000000000000007bffffffffffffffffffffffffffffffffffffffffffffffffffffffff19166020820180517bffffffffffffffffffffffffffffffffffffffffffffffffffffffff8381831617835250505050612998565b505050565b60008151905060006a636f6e736f6c652e6c6f679050602083016000808483855afa5050505050565b60008073ffffffffffffffffffffffffffffffffffffffff166129e383612009565b73ffffffffffffffffffffffffffffffffffffffff1614159050919050565b6001811115612b2257600073ffffffffffffffffffffffffffffffffffffffff168473ffffffffffffffffffffffffffffffffffffffff1614612a965780600360008673ffffffffffffffffffffffffffffffffffffffff1673ffffffffffffffffffffffffffffffffffffffff1681526020019081526020016000206000828254612a8e9190614a2f565b925050819055505b600073ffffffffffffffffffffffffffffffffffffffff168373ffffffffffffffffffffffffffffffffffffffff1614612b215780600360008573ffffffffffffffffffffffffffffffffffffffff1673ffffffffffffffffffffffffffffffffffffffff1681526020019081526020016000206000828254612b199190614726565b925050819055505b5b50505050565b50505050565b6000612b4f8473ffffffffffffffffffffffffffffffffffffffff16612e63565b15612ca8578373ffffffffffffffffffffffffffffffffffffffff1663150b7a02612b78611bba565b8786866040518563ffffffff1660e01b8152600401612b9a9493929190614ab8565b6020604051808303816000875af1925050508015612bd657506040513d601f19601f82011682018060405250810190612bd39190614b19565b60015b612c58573d8060008114612c06576040519150601f19603f3d011682016040523d82523d6000602084013e612c0b565b606091505b506000815103612c50576040517f08c379a0000000000000000000000000000000000000000000000000000000008152600401612c4790614706565b60405180910390fd5b805181602001fd5b63150b7a0260e01b7bffffffffffffffffffffffffffffffffffffffffffffffffffffffff1916817bffffffffffffffffffffffffffffffffffffffffffffffffffffffff191614915050612cad565b600190505b949350505050565b600080600090507a184f03e93ff9f4daa797ed6e38ed64bf6a1f0100000000000000008310612d13577a184f03e93ff9f4daa797ed6e38ed64bf6a1f0100000000000000008381612d0957612d0861475a565b5b0492506040810190505b6d04ee2d6d415b85acef81000000008310612d50576d04ee2d6d415b85acef81000000008381612d4657612d4561475a565b5b0492506020810190505b662386f26fc100008310612d7f57662386f26fc100008381612d7557612d7461475a565b5b0492506010810190505b6305f5e1008310612da8576305f5e1008381612d9e57612d9d61475a565b5b0492506008810190505b6127108310612dcd576127108381612dc357612dc261475a565b5b0492506004810190505b60648310612df05760648381612de657612de561475a565b5b0492506002810190505b600a8310612dff576001810190505b80915050919050565b612e128383612e86565b612e1f6000848484612b2e565b612e5e576040517f08c379a0000000000000000000000000000000000000000000000000000000008152600401612e5590614706565b60405180910390fd5b505050565b6000808273ffffffffffffffffffffffffffffffffffffffff163b119050919050565b600073ffffffffffffffffffffffffffffffffffffffff168273ffffffffffffffffffffffffffffffffffffffff1603612ef5576040517f08c379a0000000000000000000000000000000000000000000000000000000008152600401612eec90614b92565b60405180910390fd5b612efe816129c1565b15612f3e576040517f08c379a0000000000000000000000000000000000000000000000000000000008152600401612f3590614bfe565b60405180910390fd5b612f4c600083836001612a02565b612f55816129c1565b15612f95576040517f08c379a0000000000000000000000000000000000000000000000000000000008152600401612f8c90614bfe565b60405180910390fd5b6001600360008473ffffffffffffffffffffffffffffffffffffffff1673ffffffffffffffffffffffffffffffffffffffff16815260200190815260200160002060008282540192505081905550816002600083815260200190815260200160002060006101000a81548173ffffffffffffffffffffffffffffffffffffffff021916908373ffffffffffffffffffffffffffffffffffffffff160217905550808273ffffffffffffffffffffffffffffffffffffffff16600073ffffffffffffffffffffffffffffffffffffffff167fddf252ad1be2c89b69c2b068fc378daa952ba7f163c4a11628f55a4df523b3ef60405160405180910390a461309f600083836001612b28565b5050565b6000604051905090565b600080fd5b600080fd5b60007fffffffff0000000000000000000000000000000000000000000000000000000082169050919050565b6130ec816130b7565b81146130f757600080fd5b50565b600081359050613109816130e3565b92915050565b600060208284031215613125576131246130ad565b5b6000613133848285016130fa565b91505092915050565b60008115159050919050565b6131518161313c565b82525050565b600060208201905061316c6000830184613148565b92915050565b600081519050919050565b600082825260208201905092915050565b60005b838110156131ac578082015181840152602081019050613191565b60008484015250505050565b6000601f19601f8301169050919050565b60006131d482613172565b6131de818561317d565b93506131ee81856020860161318e565b6131f7816131b8565b840191505092915050565b6000602082019050818103600083015261321c81846131c9565b905092915050565b6000819050919050565b61323781613224565b811461324257600080fd5b50565b6000813590506132548161322e565b92915050565b6000602082840312156132705761326f6130ad565b5b600061327e84828501613245565b91505092915050565b600073ffffffffffffffffffffffffffffffffffffffff82169050919050565b60006132b282613287565b9050919050565b6132c2816132a7565b82525050565b60006020820190506132dd60008301846132b9565b92915050565b6132ec816132a7565b81146132f757600080fd5b50565b600081359050613309816132e3565b92915050565b60008060408385031215613326576133256130ad565b5b6000613334858286016132fa565b925050602061334585828601613245565b9150509250929050565b600080fd5b600080fd5b600080fd5b60008083601f8401126133745761337361334f565b5b8235905067ffffffffffffffff81111561339157613390613354565b5b6020830191508360018202830111156133ad576133ac613359565b5b9250929050565b600080602083850312156133cb576133ca6130ad565b5b600083013567ffffffffffffffff8111156133e9576133e86130b2565b5b6133f58582860161335e565b92509250509250929050565b60008060006060848603121561341a576134196130ad565b5b6000613428868287016132fa565b9350506020613439868287016132fa565b925050604061344a86828701613245565b9150509250925092565b600080fd5b7f4e487b7100000000000000000000000000000000000000000000000000000000600052604160045260246000fd5b613491826131b8565b810181811067ffffffffffffffff821117156134b0576134af613459565b5b80604052505050565b60006134c36130a3565b90506134cf8282613488565b919050565b600067ffffffffffffffff8211156134ef576134ee613459565b5b6134f8826131b8565b9050602081019050919050565b82818337600083830152505050565b6000613527613522846134d4565b6134b9565b90508281526020810184848401111561354357613542613454565b5b61354e848285613505565b509392505050565b600082601f83011261356b5761356a61334f565b5b813561357b848260208601613514565b91505092915050565b60006020828403121561359a576135996130ad565b5b600082013567ffffffffffffffff8111156135b8576135b76130b2565b5b6135c484828501613556565b91505092915050565b6000602082840312156135e3576135e26130ad565b5b60006135f1848285016132fa565b91505092915050565b61360381613224565b82525050565b600060208201905061361e60008301846135fa565b92915050565b600061362f82613287565b9050919050565b61363f81613624565b82525050565b600060208201905061365a6000830184613636565b92915050565b6136698161313c565b811461367457600080fd5b50565b60008135905061368681613660565b92915050565b600080604083850312156136a3576136a26130ad565b5b60006136b1858286016132fa565b92505060206136c285828601613677565b9150509250929050565b600067ffffffffffffffff8211156136e7576136e6613459565b5b6136f0826131b8565b9050602081019050919050565b600061371061370b846136cc565b6134b9565b90508281526020810184848401111561372c5761372b613454565b5b613737848285613505565b509392505050565b600082601f8301126137545761375361334f565b5b81356137648482602086016136fd565b91505092915050565b60008060008060808587031215613787576137866130ad565b5b6000613795878288016132fa565b94505060206137a6878288016132fa565b93505060406137b787828801613245565b925050606085013567ffffffffffffffff8111156137d8576137d76130b2565b5b6137e48782880161373f565b91505092959194509250565b6000806000806040858703121561380a576138096130ad565b5b600085013567ffffffffffffffff811115613828576138276130b2565b5b6138348782880161335e565b9450945050602085013567ffffffffffffffff811115613857576138566130b2565b5b6138638782880161335e565b925092505092959194509250565b60008060408385031215613888576138876130ad565b5b6000613896858286016132fa565b92505060206138a7858286016132fa565b9150509250929050565b600081519050919050565b600082825260208201905092915050565b6000819050602082019050919050565b600082825260208201905092915050565b60006138f982613172565b61390381856138dd565b935061391381856020860161318e565b61391c816131b8565b840191505092915050565b600061393383836138ee565b905092915050565b6000602082019050919050565b6000613953826138b1565b61395d81856138bc565b93508360208202850161396f856138cd565b8060005b858110156139ab578484038952815161398c8582613927565b94506139978361393b565b925060208a01995050600181019050613973565b50829750879550505050505092915050565b600060208201905081810360008301526139d78184613948565b905092915050565b7f4e487b7100000000000000000000000000000000000000000000000000000000600052602260045260246000fd5b60006002820490506001821680613a2657607f821691505b602082108103613a3957613a386139df565b5b50919050565b7f4552433732313a20617070726f76616c20746f2063757272656e74206f776e6560008201527f7200000000000000000000000000000000000000000000000000000000000000602082015250565b6000613a9b60218361317d565b9150613aa682613a3f565b604082019050919050565b60006020820190508181036000830152613aca81613a8e565b9050919050565b7f4552433732313a20617070726f76652063616c6c6572206973206e6f7420746f60008201527f6b656e206f776e6572206f7220617070726f76656420666f7220616c6c000000602082015250565b6000613b2d603d8361317d565b9150613b3882613ad1565b604082019050919050565b60006020820190508181036000830152613b5c81613b20565b9050919050565b600081905092915050565b6000613b7a8385613b63565b9350613b87838584613505565b82840190509392505050565b6000613ba0828486613b6e565b91508190509392505050565b7f4552433732313a2063616c6c6572206973206e6f7420746f6b656e206f776e6560008201527f72206f7220617070726f76656400000000000000000000000000000000000000602082015250565b6000613c08602d8361317d565b9150613c1382613bac565b604082019050919050565b60006020820190508181036000830152613c3781613bfb565b9050919050565b600081905092915050565b50565b6000613c59600083613c3e565b9150613c6482613c49565b600082019050919050565b6000613c7a82613c4c565b9150819050919050565b7f4552433732313a20696e76616c696420746f6b656e2049440000000000000000600082015250565b6000613cba60188361317d565b9150613cc582613c84565b602082019050919050565b60006020820190508181036000830152613ce981613cad565b9050919050565b7f4552433732313a2061646472657373207a65726f206973206e6f74206120766160008201527f6c6964206f776e65720000000000000000000000000000000000000000000000602082015250565b6000613d4c60298361317d565b9150613d5782613cf0565b604082019050919050565b60006020820190508181036000830152613d7b81613d3f565b9050919050565b600082905092915050565b60008190508160005260206000209050919050565b60006020601f8301049050919050565b600082821b905092915050565b600060088302613def7fffffffffffffffffffffffffffffffffffffffffffffffffffffffffffffffff82613db2565b613df98683613db2565b95508019841693508086168417925050509392505050565b6000819050919050565b6000613e36613e31613e2c84613224565b613e11565b613224565b9050919050565b6000819050919050565b613e5083613e1b565b613e64613e5c82613e3d565b848454613dbf565b825550505050565b600090565b613e79613e6c565b613e84818484613e47565b505050565b5b81811015613ea857613e9d600082613e71565b600181019050613e8a565b5050565b601f821115613eed57613ebe81613d8d565b613ec784613da2565b81016020851015613ed6578190505b613eea613ee285613da2565b830182613e89565b50505b505050565b600082821c905092915050565b6000613f1060001984600802613ef2565b1980831691505092915050565b6000613f298383613eff565b9150826002028217905092915050565b613f438383613d82565b67ffffffffffffffff811115613f5c57613f5b613459565b5b613f668254613a0e565b613f71828285613eac565b6000601f831160018114613fa05760008415613f8e578287013590505b613f988582613f1d565b865550614000565b601f198416613fae86613d8d565b60005b82811015613fd657848901358255600182019150602085019450602081019050613fb1565b86831015613ff35784890135613fef601f891682613eff565b8355505b6001600288020188555050505b50505050505050565b600061401482613172565b61401e8185613b63565b935061402e81856020860161318e565b80840191505092915050565b60006140468285614009565b91506140528284614009565b91508190509392505050565b600061406a838561317d565b9350614077838584613505565b614080836131b8565b840190509392505050565b600060208201905081810360008301526140a681848661405e565b90509392505050565b7f2e00000000000000000000000000000000000000000000000000000000000000600082015250565b60006140e5600183613b63565b91506140f0826140af565b600182019050919050565b6000815461410881613a0e565b6141128186613b63565b9450600182166000811461412d576001811461414257614175565b60ff1983168652811515820286019350614175565b61414b85613d8d565b60005b8381101561416d5781548189015260018201915060208101905061414e565b838801955050505b50505092915050565b600061418b828587613b6e565b9150614196826140d8565b91506141a282846140fb565b9150819050949350505050565b60006141bb82866140fb565b91506141c78285614009565b91506141d382846140fb565b9150819050949350505050565b7f7b226e616d65223a202200000000000000000000000000000000000000000000600082015250565b6000614216600a83613b63565b9150614221826141e0565b600a82019050919050565b7f222c20226465736372697074696f6e223a20224120646f6d61696e206f6e207460008201527f686520416c6661206e616d652073657276696365222c2022696d616765223a2060208201527f22646174613a696d6167652f7376672b786d6c3b6261736536342c0000000000604082015250565b60006142ae605b83613b63565b91506142b98261422c565b605b82019050919050565b7f222c226c656e677468223a220000000000000000000000000000000000000000600082015250565b60006142fa600c83613b63565b9150614305826142c4565b600c82019050919050565b7f227d000000000000000000000000000000000000000000000000000000000000600082015250565b6000614346600283613b63565b915061435182614310565b600282019050919050565b600061436782614209565b91506143738286614009565b915061437e826142a1565b915061438a8285614009565b9150614395826142ed565b91506143a18284614009565b91506143ac82614339565b9150819050949350505050565b7f646174613a6170706c69636174696f6e2f6a736f6e3b6261736536342c000000600082015250565b60006143ef601d83613b63565b91506143fa826143b9565b601d82019050919050565b6000614410826143e2565b915061441c8284614009565b915081905092915050565b7f4e487b7100000000000000000000000000000000000000000000000000000000600052603260045260246000fd5b7f4e487b7100000000000000000000000000000000000000000000000000000000600052601160045260246000fd5b600061449082613224565b91507fffffffffffffffffffffffffffffffffffffffffffffffffffffffffffffffff82036144c2576144c1614456565b5b600182019050919050565b600060408201905081810360008301526144e781856131c9565b905081810360208301526144fb81846131c9565b90509392505050565b7f4552433732313a207472616e736665722066726f6d20696e636f72726563742060008201527f6f776e6572000000000000000000000000000000000000000000000000000000602082015250565b600061456060258361317d565b915061456b82614504565b604082019050919050565b6000602082019050818103600083015261458f81614553565b9050919050565b7f4552433732313a207472616e7366657220746f20746865207a65726f2061646460008201527f7265737300000000000000000000000000000000000000000000000000000000602082015250565b60006145f260248361317d565b91506145fd82614596565b604082019050919050565b60006020820190508181036000830152614621816145e5565b9050919050565b7f4552433732313a20617070726f766520746f2063616c6c657200000000000000600082015250565b600061465e60198361317d565b915061466982614628565b602082019050919050565b6000602082019050818103600083015261468d81614651565b9050919050565b7f4552433732313a207472616e7366657220746f206e6f6e20455243373231526560008201527f63656976657220696d706c656d656e7465720000000000000000000000000000602082015250565b60006146f060328361317d565b91506146fb82614694565b604082019050919050565b6000602082019050818103600083015261471f816146e3565b9050919050565b600061473182613224565b915061473c83613224565b925082820190508082111561475457614753614456565b5b92915050565b7f4e487b7100000000000000000000000000000000000000000000000000000000600052601260045260246000fd5b600060808201905081810360008301526147a381876131c9565b905081810360208301526147b781866131c9565b905081810360408301526147cb81856131c9565b90506147da60608301846135fa565b95945050505050565b60006147ee82613224565b91506147f983613224565b9250826148095761480861475a565b5b828204905092915050565b600061481f82613224565b915061482a83613224565b925082820261483881613224565b9150828204841483151761484f5761484e614456565b5b5092915050565b7f45524337323155524953746f726167653a2055524920736574206f66206e6f6e60008201527f6578697374656e7420746f6b656e000000000000000000000000000000000000602082015250565b60006148b2602e8361317d565b91506148bd82614856565b604082019050919050565b600060208201905081810360008301526148e1816148a5565b9050919050565b6148f182613172565b67ffffffffffffffff81111561490a57614909613459565b5b6149148254613a0e565b61491f828285613eac565b600060209050601f8311600181146149525760008415614940578287015190505b61494a8582613f1d565b8655506149b2565b601f19841661496086613d8d565b60005b8281101561498857848901518255600182019150602085019450602081019050614963565b868310156149a557848901516149a1601f891682613eff565b8355505b6001600288020188555050505b505050505050565b600060408201905081810360008301526149d481856131c9565b90506149e360208301846132b9565b9392505050565b60006060820190508181036000830152614a0481866131c9565b9050614a1360208301856135fa565b8181036040830152614a2581846131c9565b9050949350505050565b6000614a3a82613224565b9150614a4583613224565b9250828203905081811115614a5d57614a5c614456565b5b92915050565b600081519050919050565b600082825260208201905092915050565b6000614a8a82614a63565b614a948185614a6e565b9350614aa481856020860161318e565b614aad816131b8565b840191505092915050565b6000608082019050614acd60008301876132b9565b614ada60208301866132b9565b614ae760408301856135fa565b8181036060830152614af98184614a7f565b905095945050505050565b600081519050614b13816130e3565b92915050565b600060208284031215614b2f57614b2e6130ad565b5b6000614b3d84828501614b04565b91505092915050565b7f4552433732313a206d696e7420746f20746865207a65726f2061646472657373600082015250565b6000614b7c60208361317d565b9150614b8782614b46565b602082019050919050565b60006020820190508181036000830152614bab81614b6f565b9050919050565b7f4552433732313a20746f6b656e20616c7265616479206d696e74656400000000600082015250565b6000614be8601c8361317d565b9150614bf382614bb2565b602082019050919050565b60006020820190508181036000830152614c1781614bdb565b905091905056fe0a2d2d2d2d2d2d2d2d2d2d2d2d2d2d2d2d2d2d2d2d2d2d2d2d2d2d2d2d2d2d2d2d2d2d2d2d2d2d2d2d2d2d2d2d2d2d2d2d2d2d2d2d2d2d2d2d5265676973746572696e672025732e2573206f6e2074686520636f6e7472616374207769746820746f6b656e49442025642d2d2d2d2d2d2d2d2d2d2d2d2d2d2d2d2d2d2d2d2d2d2d2d2d2d2d2d2d2d2d2d2d2d2d2d2d2d2d2d2d2d2d2d2d2d2d2d2d2d2d2d2d2d2d2d0a4142434445464748494a4b4c4d4e4f505152535455565758595a6162636465666768696a6b6c6d6e6f707172737475767778797a303132333435363738392b2fa2646970667358221220d535dff3190d5500029c75a940a98fbf8fc0c88e6a4425493f73c184a753cefd64736f6c634300081100333c73766720786d6c6e733d22687474703a2f2f7777772e77332e6f72672f323030302f737667222077696474683d2232373022206865696768743d22323730222066696c6c3d226e6f6e65223e3c706174682066696c6c3d2275726c282342292220643d224d302030683237307632373048307a222f3e3c646566733e3c66696c7465722069643d22412220636f6c6f722d696e746572706f6c6174696f6e2d66696c746572733d2273524742222066696c746572556e6974733d227573657253706163654f6e55736522206865696768743d22323730222077696474683d22323730223e3c666544726f70536861646f772064783d2230222064793d22312220737464446576696174696f6e3d22322220666c6f6f642d6f7061636974793d222e323235222077696474683d223230302522206865696768743d2232303025222f3e3c2f66696c7465723e3c2f646566733e3c7061746820643d224d37322e3836332034322e393439632d2e3636382d2e3338372d312e3432362d2e35392d322e3139372d2e3539732d312e3532392e3230342d322e3139372e35396c2d31302e30383120362e3033322d362e383520332e3933342d31302e30383120362e303332632d2e3636382e3338372d312e3432362e35392d322e3139372e3539732d312e3532392d2e3230342d322e3139372d2e35396c2d382e3031332d342e37323161342e353220342e35322030203020312d312e3538392d312e363136632d2e3338342d2e3636352d2e3539342d312e3431382d2e3630382d322e313837762d392e3331632d2e3031332d2e3737352e3138352d312e3533382e3537322d322e32303861342e323520342e323520302030203120312e3632352d312e3539356c372e3838342d342e3539632e3636382d2e33383720312e3432362d2e353920322e3139372d2e353973312e3532392e32303420322e3139372e35396c372e38383420342e353961342e353220342e353220302030203120312e35383920312e363136632e3338342e3636352e35393420312e3431382e36303820322e31383776362e3033326c362e38352d342e303635762d362e303332632e3031332d2e3737352d2e3138352d312e3533382d2e3537322d322e32303861342e323520342e32352030203020302d312e3632352d312e3539354c34312e3435362032342e3539632d2e3636382d2e3338372d312e3432362d2e35392d322e3139372d2e3539732d312e3532392e3230342d322e3139372e35396c2d31342e38363420382e36353561342e323520342e32352030203020302d312e36323520312e353935632d2e3338372e36372d2e35383520312e3433342d2e35373220322e3230387631372e343431632d2e3031332e3737352e31383520312e3533382e35373220322e32303861342e323520342e323520302030203020312e36323520312e3539356c31342e38363420382e363535632e3636382e33383720312e3432362e353920322e3139372e353973312e3532392d2e32303420322e3139372d2e35396c31302e3038312d352e39303120362e38352d342e3036352031302e3038312d352e393031632e3636382d2e33383720312e3432362d2e353920322e3139372d2e353973312e3532392e32303420322e3139372e35396c372e38383420342e353961342e353220342e353220302030203120312e35383920312e363136632e3338342e3636352e35393420312e3431382e36303820322e31383776392e333131632e3031332e3737352d2e31383520312e3533382d2e35373220322e32303861342e323520342e32352030203020312d312e36323520312e3539356c2d372e38383420342e373231632d2e3636382e3338372d312e3432362e35392d322e3139372e3539732d312e3532392d2e3230342d322e3139372d2e35396c2d372e3838342d342e353961342e353220342e35322030203020312d312e3538392d312e363136632d2e3338352d2e3636352d2e3539342d312e3431382d2e3630382d322e313837762d362e3033326c2d362e383520342e30363576362e303332632d2e3031332e3737352e31383520312e3533382e35373220322e32303861342e323520342e323520302030203020312e36323520312e3539356c31342e38363420382e363535632e3636382e33383720312e3432362e353920322e3139372e353973312e3532392d2e32303420322e3139372d2e35396c31342e3836342d382e363535632e3635372d2e33393420312e3230342d2e393520312e3538392d312e363136732e3539342d312e3431382e3630392d322e3138375635352e353338632e3031332d2e3737352d2e3138352d312e3533382d2e3537322d322e32303861342e323520342e32352030203020302d312e3632352d312e3539356c2d31342e3939332d382e3738367a222066696c6c3d2223666666222f3e3c646566733e3c6c696e6561724772616469656e742069643d2242222078313d2230222079313d2230222078323d22323730222079323d2232373022206772616469656e74556e6974733d227573657253706163654f6e557365223e3c73746f702073746f702d636f6c6f723d2223636235656565222f3e3c73746f70206f66667365743d2231222073746f702d636f6c6f723d2223306364376534222073746f702d6f7061636974793d222e3939222f3e3c2f6c696e6561724772616469656e743e3c2f646566733e3c7465787420783d2233322e352220793d223233312220666f6e742d73697a653d223237222066696c6c3d2223666666222066696c7465723d2275726c282341292220666f6e742d66616d696c793d22506c7573204a616b617274612053616e732c44656a6156752053616e732c4e6f746f20436f6c6f7220456d6f6a692c4170706c6520436f6c6f7220456d6f6a692c73616e732d73657269662220666f6e742d7765696768743d22626f6c64223e",
  "linkReferences": {},
  "deployedLinkReferences": {}
}